:100000000C94DB000C9403010C9403010C94030189
:100010000C9403010C9403010C9403010C94030150
:100020000C9403010C9403010C94EC040C945E05F5
:100030000C9403010C9403010C9403010C94030130
:100040000C9403010C948E070C9403010C9403018F
:100050000C9403010C9403010C9403010C94A2046E
:100060000C9403010C9403010C9403010C94030100
:100070000C9403010C9403010C9403010C940301F0
:100080000C9403010C9403010C9403010C940301E0
:100090000C9403010C9403010C9403010C940301D0
:1000A0000C9403010C9403010C940301B302B602F7
:1000B000A502A902AD02D702D702D702BA02BE0238
:1000C000C202C802CC02D702D20200000000240003
:1000D00027002A002D003000080B00020202010058
:1000E000090400000102020000052400100105249B
:1000F000010101042402060524060001070581030D
:1001000010004009040100020A0000000705020275
:1001100040000007058302400000040309041201A7
:100120000002EF020140412341800001010203016E
:1001300041726475696E6F204C4C43004172647566
:10014000696E6F2059756E000000000025002800C0
:100150002B002E00310004040404040304050202F1
:100160000202040302020202060606060606040450
:1001700002020204040408020110408040102040E2
:10018000804080080204018040201002011080108D
:10019000204040200000000200090F00000304017D
:1001A000000C000000000000000000000000000043
:1001B000000000004F0811241FBECFEFDAE0DEBFC1
:1001C000CDBF11E0A0E0B1E0E2E6F4E102C00590AD
:1001D0000D92A632B107D9F721E0A6E2B1E001C045
:1001E0001D92A03CB207E1F710E0CBEDD0E004C0D7
:1001F0002197FE010E94240ACA3DD107C9F70E9437
:1002000087080C942F0A0C940000CF92DF92EF9293
:10021000FF92DC01A03282E0B8070CF03EC0B7FDCF
:1002200006C0A53BB1052CF0A4EBB0E002C0A0E0F5
:10023000B0E08091BE0128E830E06901C81AD10819
:1002400087FDD394CC0CDD1CCC0CDD1C0D2C000CDC
:10025000EE08FF088091BF0128E532E0281B310934
:1002600087FD3395220F331F220F331FA901330F50
:10027000660B770B9A01AB012C193D094E095F09FA
:100280000E94DF0924EB30E040E050E00E94B50915
:10029000C20ED31EE41EF51ED6019091BD019C3006
:1002A00098F58091BE0148E850E0481B510987FD50
:1002B0005395440F551F440F551FA417B5078CF0D5
:1002C0008091BF0128E532E0281B310987FD339575
:1002D000220F331F220F331FAD012A173B070CF4E7
:1002E000A90142505109440F551F2FB7F894892F87
:1002F00090E0FC01EE0FFF1F8E0F9F1FFC01E856E0
:10030000FE4F528341832FBFFF90EF90DF90CF903D
:100310000895FC0180914701811103C08FEF9FEF89
:1003200008959FB7F89482E08093E9002091F2004D
:1003300030E01216130614F421E030E021153105E7
:1003400059F0289884E6809346018091F1008083DB
:100350008091F200882319F09FBFC90108958BE6B0
:100360008093E800F9CF2FB7F89483E08093E900F9
:100370009091E800892F807295FF04C09091F2005F
:1003800080E4891B2FBF0895CF92DF92EF92FF92F6
:100390000F931F93CF93DF936C017A018B01C0E021
:1003A000D0E0CE15DF0589F0D8016D918D01D60121
:1003B000ED91FC910190F081E02DC6010995892B0A
:1003C00011F47E0102C02196ECCFC701DF91CF91DD
:1003D0001F910F91FF90EF90DF90CF900895809143
:1003E0003E0181110DC082E080933A0184E0809348
:1003F0003B0110923D0110923C0181E080933E014F
:100400008AE391E00895CF93DF931F92CDB7DEB7D3
:100410006983DC01ED91FC910280F381E02D41E0E4
:1004200050E0BE016F5F7F4F09950F90DF91CF9134
:10043000089583E08093E9008091F200882319F009
:100440008AE38093E80008950E94B30190E0089544
:10045000CF93DF931F92CDB7DEB7FC0184859585DE
:1004600097FD05C02FEF3FEF358724870BC0CE01E6
:1004700001960E948901019719F4898190E002C0D8
:100480008FEF9FEF0F90DF91CF9108950F931F9300
:10049000CF93DF931F92CDB7DEB78C01FC0184852B
:1004A000958597FF0EC0CE0101960E9489010197A4
:1004B00019F4298130E002C02FEF3FEFF8013587B2
:1004C0002487F801848595850F90DF91CF911F9146
:1004D0000F910895FC018485958597FD0BC09FB70A
:1004E000F89482E08093E9008091F2009FBF90E051
:1004F000019608959FB7F89482E08093E900809177
:10050000F2009FBF90E00895089580E090E0089584
:10051000362F90E0FC01EC56FE4F4491FC01EB5865
:10052000FE4F2491FC01EA5AFE4F8491882309F47E
:1005300051C04423E1F150E0FA013197EF30F10569
:10054000B0F5EA5AFF4F0C94240A909180009F77EF
:1005500007C0909180009F7D03C090918000977F9D
:100560009093800024C094B59F7702C094B59F7D7E
:1005700094BD1DC0909190009F7707C0909190000E
:100580009F7D03C090919000977F909390000FC043
:100590009091C0009F7703C09091C0009F7D909381
:1005A000C00005C09091C200977F9093C200E82FD1
:1005B000F0E0EE0FFF1FE85BFE4FA591B4918FB7FF
:1005C000F894EC91311103C020952E2301C02E2BFD
:1005D0002C938FBF08953FB7F89480913401909188
:1005E0003501A0913601B091370126B5A89B05C011
:1005F0002F3F19F00196A11DB11D3FBFBA2FA92FA2
:10060000982F8827820F911DA11DB11DBC01CD011E
:1006100042E0660F771F881F991F4A95D1F708950A
:100620008F929F92AF92BF92CF92DF92EF92FF9202
:100630006B017C010E94EB024B015C01C114D104EF
:10064000E104F104F1F00E94EB02DC01CB01881916
:100650009909AA09BB09883E9340A105B10570F329
:1006600021E0C21AD108E108F10888EE880E83E083
:10067000981EA11CB11CC114D104E104F10419F7A6
:10068000DDCFFF90EF90DF90CF90BF90AF909F9025
:100690008F9008958F929F92AF92BF92CF92DF92E8
:1006A000EF92FF920F931F93CF93DF935C016B0147
:1006B0007A0180910B01882309F45BC08091470186
:1006C000882309F456C08091390180FF05C08091CC
:1006D000E00082608093E000E70110E00AEF83E031
:1006E000882E9AE3992E2097D9F10E94B3018111A7
:1006F0000AC0015009F43DC061E070E080E090E084
:100700000E941003F0CF282F30E0C217D3070CF45B
:100710008C2F4FB7F8948092E9009091E80095FFF4
:100720001DC0282F30E0C21BD30BF601982F91502B
:1007300020F081918093F100FACFC20ED31E1123D5
:1007400019F09092E80009C08091E80085FD06C08C
:100750009092E80011E0209709F010E04FBFC3CF5E
:100760001111C3CF5D9884E6809338011E141F04D5
:1007700044F081E090E0F5019383828380E090E093
:1007800001C0C701DF91CF911F910F91FF90EF90B2
:10079000DF90CF90BF90AF909F908F900895409141
:1007A0002B0150912C012091290130912A014217EF
:1007B0005307B4F49091E8009570E1F39091E8004C
:1007C00092FD19C08093F10080912B0190912C0132
:1007D00001968F739927892B19F48EEF8093E80087
:1007E00080912B0190912C01019690932C01809384
:1007F0002B0181E0089580E00895CF92DF92EF927F
:10080000FF920F931F93CF93DF931F92CDB7DEB765
:10081000182F062FE42E862F880F8E5F99830E9453
:10082000CF0383E00E94CF03F12EC12E9981D92EF0
:100830008C2D8F19801798F4F601E7FE02C0849181
:1008400001C080810E94CF03182F80E00E94CF0357
:100850008123FFEFCF1ADF0A8111EACF01C081E0C7
:100860000F90DF91CF911F910F91FF90EF90DF904C
:10087000CF900895DF92EF92FF920F931F93CF9343
:10088000DF93D82E8A017B01E40EF51EEB01CE1515
:10089000DF0571F0D7FE03C0FE01849101C088819D
:1008A0000E94CF0321968111F2CF8FEF9FEF01C0FD
:1008B000C801DF91CF911F910F91FF90EF90DF90D2
:1008C00008950F931F93CF93DF931F92CDB7DEB799
:1008D00082E0898342E450E068ED70E080E80E94A5
:1008E0003A040E94EF01DC0112960D911C911397BE
:1008F0000115110569F0D801ED91FC910280F38199
:10090000E02DBE016F5F7F4FC801099597FF07C0BB
:1009100089810F90DF91CF911F910F910895F80178
:1009200000851185E5CF615030F02091F100FC0188
:1009300020830196F8CF289884E680934601089595
:100940000E942A0A1F920F920FB60F9211242F9322
:100950003F938F939F93AF93BF938091300190917A
:100960003101A0913201B091330130912F0123E088
:10097000230F2D3720F40196A11DB11D05C026E8D7
:10098000230F0296A11DB11D20932F0180933001EA
:1009900090933101A0933201B093330180913401DF
:1009A00090913501A0913601B09137010196A11DBA
:1009B000B11D8093340190933501A0933601B0931B
:1009C0003701BF91AF919F918F913F912F910F90E0
:1009D0000FBE0F901F9018951F920F920FB60F9297
:1009E00011248F939F938091E1009091E100937F78
:1009F0009093E10083FF0FC01092E90091E0909383
:100A0000EB001092EC0092E39093ED0010924701FE
:100A100098E09093F00082FF20C093E09093E9006B
:100A20009091F200992319F09AE39093E800909145
:100A30003801992339F09091380191509093380101
:100A4000992389F190914601992339F090914601BB
:100A5000915090934601992341F184FF10C08091F9
:100A6000E2008E7E81608093E2008091E1008F7EC3
:100A70008093E100809139018E7E806111C080FFFA
:100A800016C08091E2008E7E80618093E2008091AA
:100A9000E1008E7E8093E100809139018E7E81603D
:100AA0008093390104C05D9ACDCF289AD6CF9F910B
:100AB0008F910F900FBE0F901F9018951F920F925D
:100AC0000FB60F921124CF92DF92EF92FF920F9305
:100AD0001F932F933F934F935F936F937F938F93C6
:100AE0009F93AF93BF93EF93FF93CF93DF93CDB7D4
:100AF000DEB76C97DEBFCDBF1092E9008091E800B1
:100B000083FFEDC168E0CE0145960E94930482EF19
:100B10008093E8008D8987FF05C09091E80090FFE1
:100B2000FCCF03C09EEF9093E800982F907609F0D9
:100B3000C6C09E892F89188D91110CC0803829F468
:100B400080912E018093F10002C01092F10010926A
:100B5000F10048C1422F50E0512B913051F48111E6
:100B600041C14130510509F03DC180912E018D7F79
:100B70000BC0933061F4811135C14130510509F04A
:100B800031C180912E01826080932E012BC195305E
:100B900041F48091E80080FFFCCF20682093E300BF
:100BA00021C1963009F05FC0EB8CFC8C1092E900FB
:100BB00010922C0110922B01123091F510922A0103
:100BC000109229010E94610499E0BE016F5F7F4F7E
:100BD000DB01E92F1D92EA95E9F799831A8391E0E9
:100BE0009E8390EA98879AEF998720912B01309104
:100BF0002C01275F3F4F3C832B838D831092E900AC
:100C000010922C0110922B01F0922A01E0922901FE
:100C100049E050E080E00E943A040E946104E2C092
:100C2000F0922A01E09229010E94EF01DC01129664
:100C3000ED90FC901397E114F10409F4C0C0D701C2
:100C4000ED91FC910480F581E02DBE016B5E7F4F3C
:100C5000C7010995009719F00CF0C4C0C7C0F7018F
:100C6000E084F184E8CF973009F4C0C0983021F4D3
:100C700081E08093F100B6C0993009F0B3C0837071
:100C800009F0B4C0EDE0F1E081E021E036E39081CD
:100C9000992361F08093E9002093EB009191909368
:100CA000EC003093ED008F5F873089F78EE78093FB
:100CB000EA001092EA008F898093470193C08B8DE0
:100CC0009C8D1092E90010922C0110922B019093B0
:100CD0002A0180932901898D811156C08E899D89B1
:100CE000913A59F4813209F081C047E050E064E064
:100CF00071E080E00E943A0475C0913209F076C03C
:100D0000833289F4888D90E0982F88272F89822B51
:100D1000A0E0B0E08093000190930101A093020154
:100D2000B09303015FC0803269F48091E80082FFD4
:100D3000FCCF67E084E091E00E9493048BEF809306
:100D4000E80006C0823209F04DC08F8980930B0104
:100D500080912D01882319F0EEEFFAE002C0E0E067
:100D6000F8E08091040190910501A0910601B091F5
:100D70000701803B9440A105B10509F07BC080913B
:100D80000B0180FF93C076C00E94EF01DC01129638
:100D90000D911C9113970115110541F1D801ED91A9
:100DA000FC910190F081E02DBE016B5E7F4FC80188
:100DB0000995811117C0F80100851185ECCF11301C
:100DC00009F44EC0133091F48F89882309F445C08B
:100DD000823081F440E86BE08CE391E00E94FD03F7
:100DE000882321F08EEF8093E80079C081E2809320
:100DF000EB0075C0813029F440E86BE080E391E0BE
:100E0000EDCF833099F70E94EF01DC011296ED904F
:100E1000FC9013978E010F5F1F4F6801E114F104DE
:100E200079F0D701ED91FC910680F781E02DB801B2
:100E3000C7010995080F111DF701E084F184EECF79
:100E4000D8011C92F60101900020E9F73197BF010B
:100E50006C197D0940E0C601C1CF6AE171E002C0B2
:100E60006EE171E06115710509F2FB01449150E0FA
:100E700080E840CF0FB6F894A89580916000886113
:100E800080936000109260000FBEA895EE3F2AE0AC
:100E9000F20739F08091FE0A9091FF0A91838083D6
:100EA000A1CF1092FF0A1092FE0A9CCFEE3F8AE07B
:100EB000F80731F0808191819093FF0A8093FE0AB8
:100EC00087E797E7918380839BE088E10FB6F894EA
:100ED000A895809360000FBE9093600083CF6C96BE
:100EE0000FB6F894DEBF0FBECDBFDF91CF91FF915B
:100EF000EF91BF91AF919F918F917F916F915F9192
:100F00004F913F912F911F910F91FF90EF90DF90A4
:100F1000CF900F900FBE0F901F9018951F920F92B9
:100F20000FB60F9211242F933F934F935F936F93BC
:100F30007F938F939F93AF93BF93EF93FF93809192
:100F4000260187FF05C010928500109284001BC007
:100F500020912601022E000C330B8091BC0190E001
:100F60002817390784F480912601082E000C990B6C
:100F7000FC01EE0FFF1F8E0F9F1FFC01E856FE4F76
:100F8000808186FD15C0809126018F5F80932601A8
:100F900020912601022E000C330B8091BC0190E0C1
:100FA00028173907C4F4809126018C3064F113C0EE
:100FB00080912601082E000C990BFC01EE0FFF1FFB
:100FC0008E0F9F1FFC01E856FE4F808160E08F73FB
:100FD0000E948802D8CF8091840090918500049669
:100FE00080349C4918F480E49CE905C08091840019
:100FF00090918500049690938900809388008FEFEC
:10100000809326013BC0209184003091850080911F
:101010002601082E000C990BFC01EE0FFF1F8E0F0E
:101020009F1FFC01E856FE4F81819281820F931F22
:10103000909389008093880080912601082E000CEF
:10104000990BFC01EE0FFF1F8E0F9F1FFC01E8564E
:10105000FE4F808186FF12C080912601082E000C71
:10106000990BFC01EE0FFF1F8E0F9F1FFC01E8562E
:10107000FE4F808161E08F730E948802FF91EF91A3
:10108000BF91AF919F918F917F916F915F914F91A0
:101090003F912F910F900FBE0F901F9018951092B7
:1010A0004B0110924A0188EE93E0A0E0B0E08093FB
:1010B0004C0190934D01A0934E01B0934F0187E1F5
:1010C00091E090934901809348018FEF9FEF9093B7
:1010D0005501809354018091BC018C30A0F491E0C3
:1010E000980F9093BC018093BD0190E0FC01EE0F3E
:1010F000FF1F8E0F9F1FFC01E856FE4F88EB9BE001
:101100009283818308958FEF8093BD010895789431
:1011100084B5826084BD84B5816084BD85B58260FC
:1011200085BD85B5816085BD80916E0081608093AD
:101130006E00109281008091810082608093810016
:101140008091810081608093810080918000816026
:1011500080938000809191008260809391008091C3
:1011600091008160809391008091900081608093D4
:1011700090008091C10084608093C1008091C10083
:1011800082608093C1008091C10081608093C10022
:101190008091C30081608093C3008091C000826011
:1011A0008093C0008091C20081608093C2008091D2
:1011B0007A00846080937A0080917A0082608093C4
:1011C0007A0080917A00816080937A0080917A0021
:1011D000806880937A001092470110922E0110923D
:1011E00039018091D70081608093D70080EA809395
:1011F000D80089B5806189BD89B5826089BD09B48F
:1012000000FEFDCF61E070E080E090E00E941003FE
:101210008091D8008F7C80618093D8008091E0001D
:10122000807F8093E0008091E1008E7E8093E100DA
:101230008DE08093E200559A209AEEEFFFE78591CA
:1012400094918B3F9C4D19F481E080932D01809106
:10125000BD018C3008F068C0E2E8F1E02491E3E6DB
:10126000F1E08491882399F090E0880F991FFC01A8
:10127000E653FF4FA591B491FC01E85BFE4F8591C9
:1012800094918FB7F894EC91E22BEC938FBF8091FF
:10129000BD01E82FF0E09F01220F331FE20FF31F83
:1012A000E856FE4F9081907C9D6090831092BE0125
:1012B0001092BF016CE00E94180A9CE0899FB00167
:1012C000112440E050E09A01260F371FF901EE0F7C
:1012D000FF1F2E0F3F1FF901E856FE4F908196FD2C
:1012E00016C04F5F5F4F4C30510569F781110FC039
:1012F0001092800082E0809381001092850010920D
:101300008400B19A80916F00826080936F00E091B9
:10131000BD01F0E0CF01880F991FE80FF91FE856D3
:10132000FE4F808180648083C0E0D0E004EB10E059
:1013300080E090E00E94050164EF71E080E090E0C1
:101340000E941003109328010093270184EB90E082
:101350000E94050164EF71E080E090E00E941003BC
:10136000209731F30E940000E3CF052E97FB1EF477
:1013700000940E94CC0957FD07D00E94E70907FCA2
:1013800003D04EF40C94CC0950954095309521959E
:101390003F4F4F4F5F4F08959095809570956195A1
:1013A0007F4F8F4F9F4F08950E94090AA59F900D70
:1013B000B49F900DA49F800D911D11240895B7FF37
:1013C0000C94D4090E94D409821B930B0895A1E2C6
:1013D0001A2EAA1BBB1BFD010DC0AA1FBB1FEE1FAF
:1013E000FF1FA217B307E407F50720F0A21BB30BFA
:1013F000E40BF50B661F771F881F991F1A9469F776
:1014000060957095809590959B01AC01BD01CF01D1
:101410000895A29FB001B39FC001A39F700D811DCD
:101420001124911DB29F700D811D1124911D0895ED
:10143000991B79E004C0991F961708F0961B881F26
:101440007A95C9F780950895EE0FFF1F0590F491E6
:10145000E02D099481E090E0F8940C942F0AF89420
:02146000FFCFBC
:10146200FFFFFFFF00E100000000000000C18081DB
:101472000000000000000003024A03240219026A6D
:06148200022802460200F0
:00000001FF
